:100000000C942A000C9447000C9447000C94470071
:100010000C9447000C9447000C9447000C94470044
:100020000C9447000C9447000C9447000C944F002C
:100030000C9447000C9447000C9447000C94470024
:100040000C9447000C9447000C9447000C94470014
:100050000C94470011241FBECFE5D8E0DEBFCDBF12
:1000600010E0A0E6B0E0E6E9F3E002C005900D92F2
:10007000AC36B107D9F720E0ACE6B0E001C01D9284
:10008000AA37B207E1F70E94F7000C94C9010C945B
:100090000000789481E083BF89BF12BE08951F924B
:1000A0000F920FB60F9211242F933F934F935F93AC
:1000B0006F937F938F939F93AF93BF93EF93FF9330
:1000C00060917800709179006F5F7F4F7093790035
:1000D00060937800072E000C880B990B0E94650135
:1000E000E0917000F0917100EE0FFF1FEE0FFF1F07
:1000F000EC59FF4F20813181428153810E94A00140
:1001000087FD21C0109279001092780080916D00D7
:10011000882389F080917400909175000196843055
:1001200091052CF4909375008093740004C0109294
:10013000750010927400E0917400F0917500E05A1F
:10014000FF4F808182BB60917600709177006F5F76
:100150007F4F7093770060937600072E000C880B1A
:10016000990B0E946501E0916E00F0916F00EE0F17
:10017000FF1FEE0FFF1FEC59FF4F2081318142819D
:1001800053810E94A00187FD21C010927700109238
:10019000760080916C00882389F0809172009091A4
:1001A00073000196843091052CF490937300809332
:1001B000720004C01092730010927200E0917200FD
:1001C000F0917300E05AFF4F808185BBFF91EF9162
:1001D000BF91AF919F918F917F916F915F914F915F
:1001E0003F912F910F900FBE0F901F9018951ABA44
:1001F0008FEF84BB81BB15BA12BA0E94490081E01F
:1002000021E030E049B3942F9F71943049F48093FA
:100210006D0080936C0010927100109270001CC0F1
:100220009E3049F480936D0080936C003093710090
:100230002093700006C0933049F410926D008093B3
:100240006C0030936F0020936E00DCCF913049F446
:1002500010926D0090936C0010926F0010926E00DF
:10026000D1CF4B71423049F480936D0080936C0084
:100270003093710020937000EFCF483049F48093A1
:100280006D0080936C001092710010927000D9CFB5
:10029000983149F480936D0010926C003093710096
:1002A00020937000AFCF903149F480936D0010928D
:1002B0006C001092710010927000A4CF10926D002B
:1002C00010926C009FCFE89409C097FB3EF4909584
:1002D0008095709561957F4F8F4F9F4F9923A9F01F
:1002E000F92F96E9BB279395F695879577956795AE
:1002F000B795F111F8CFFAF4BB0F11F460FF1BC0F2
:100300006F5F7F4F8F4F9F4F16C0882311F096E984
:1003100011C0772321F09EE8872F762F05C0662332
:1003200071F096E8862F70E060E02AF09A95660FEB
:10033000771F881FDAF7880F9695879597F90895A4
:100340000E94A50108F48FEF0895990F0008550F3A
:10035000AA0BE0E8FEEF16161706E807F907C0F04B
:1003600012161306E407F50798F0621B730B840B53
:10037000950B39F40A2661F0232B242B252B21F42D
:1003800008950A2609F4A140A6958FEF811D811DCD
:060390000895F894FFCF70
:0C03960005060A090050C3430050434410
:00000001FF
