:0A0000000C9468000C9400000C94AE
:10000A0000000C9400000C9400000C9400000C9466
:10001A0000000C9400000C9400000C9400000C9456
:10002A0000000C9400000C9400000C9400000C9446
:10003A0000000C9400000C9400000C9400000C9436
:10004A0000000C9400000C9400001027E8036400E0
:10005A000A00010000100001100001001700290029
:10006A001200820049443A0050573A00256400259C
:10007A00643A25643A25640072706D3A2564006515
:10008A0072726F72000001002D4E414E00494E46B9
:10009A00000080C004000A00660001006E016A00C8
:1000AA00010070016C00040060016E00040064012C
:1000BA0072000600680189000100910190000200A7
:1000CA0095019C000000F894EE27ECBBF1E0FBBF21
:1000DA00EBBFE5BF8DE0A2E0BB27ED938A95E9F778
:1000EA0080E094E0A0E6ED930197E9F7EEE9F0E00D
:1000FA0085919591009761F0A591B591059015901C
:10010A00BF01F00105900D920197E1F7FB01F0CFD5
:10011A00EFE5EDBFE4E0EEBFC0E6D1E00C94E1000C
:10012A00AC98AD9AAE9AAF9A989B36C0999902C08C
:10013A00E9E308959A9902C0E8E308959B9902C0F9
:10014A00E7E30895AC9AAD98AE9AAF9A989B24C00B
:10015A00999902C0E6E308959A9902C0E5E30895E1
:10016A009B9902C0E4E30895AC9AAD9AAE98AF9A0F
:10017A00989B12C0999902C0E3E308959A9902C024
:10018A00E2E308959B9902C0E1E30895949AAD9A37
:10019A00AE9AAF98989902C0EBE40895999902C073
:1001AA00EDE308959A9902C0E0E308959B9902C08D
:1001BA00E5E40895EEE40895E0EFE4BBEFE0E5BB83
:1001CA00E3E0E7BBE0E0E8BBB29AB39AB49AEBB9D2
:1001DA00E8E1EAB9E6E8E0BDE0E0E0BDE3E3E9B979
:1001EA00A0E10E945904E5E00E94B504A0E6B1E04E
:1001FA000E944804E5E00E94B904A4E6B1E00E9426
:10020A00BD04A0917201AB3421F4A0918B01A033FB
:10021A0041F5A0917201AE3461F0F401ED58FE4F40
:10022A00A083A3E7B1E00E9410022F010E94C70435
:10023A00F0CFEAE00E94B504EBE7F1E00E94CE04B9
:10024A00F2010E94D504ABE7B1E00E94BD04A0917F
:10025A007201AD3329F4EBE4E09372018824992406
:10026A00D0CFEEE4E0937201A0917201AB3421F495
:10027A00A0918B01A03341F5A0917201AE3461F0D7
:10028A00F401E958FE4FA083A7E7B1E00E941002EB
:10029A003F010E94C704F0CFEAE00E94B904ECE7EC
:1002AA00F1E00E94CE04F3010E94D504ACE7B1E06C
:1002BA000E94BD04A0917201AD3329F4EBE4E093EE
:1002CA00720188249924D0CFE1E0F0E0E415F50525
:1002DA0029F4E3E0F0E0E615F70529F0A0918B0197
:1002EA00A03309F07EC0E1E0E8BBF50131965F0179
:1002FA00EBE3F0E0EA15FB05E9F4F60131966F014C
:10030A00AA24BB24EBE3F0E0EC15FD0521F40E94DE
:10031A00DE04CC24DD24A0916E01B0916F015797C1
:10032A0049F4E0E0E0936E01E0936F01CC24DD2410
:10033A00AA24BB24B29903C0F60131966F01B3997E
:10034A0002C00E94DE04B49904C0A0E7B1E00E9492
:10035A00E6040E941A04EAE00E94B504ACE8B1E09F
:10036A000E944804E0E00E94B504EDE7F1E0FA9348
:10037A00EA93E9E7F0E0FA93EA93E0916E01F091EB
:10038A006F010E94EC04F6010E94EC04F5010E9440
:10039A00EC048CE00E94B5036096ADE7B1E00E94E0
:1003AA004804E0E00E94B904E7E8F1E0FA93EA932E
:1003BA00E2E8F0E0FA93EA93E0917001F0917101BA
:1003CA000E94D504A7E8B1E00E944804A8EEB3E071
:1003DA000E942B05E1E0F0E02F01E3E0F0E03F01AD
:1003EA0073CFE1E0F0E0E415F50529F0E3E0F0E091
:1003FA00E615F70521F4A0918B01A03351F4E2E050
:10040A00E8BBE0E00E94B504A8E6B1E00E94480417
:10041A00E8CFE9CEFFCFBA93AA93B981A881EC912C
:10042A008A2FAE2F0E949104A82FEE2311F0119665
:10043A00F6CFE894EC91ED3211F4689402C0EB32F5
:10044A0009F4119666277727EC918A2FAE2F0E941E
:10045A008804A82FEE2379F0FB01660F771F660F39
:10046A00771F6E0F7F1F660F771FED91FF27E053EF
:10047A006E0F7F1FE9CFFB011EF4E095F0953196D0
:10048A0022960895BA93AA931A930A93AA81BB81D2
:10049A0012960E944205309729F1AA81BB811496CF
:1004AA000E9442058F01309761F00230E0E01E079A
:1004BA0080F0F80131978F01AA81BB811496ED93E0
:1004CA00FC93AA81BB8112960E94E6043197AC8103
:1004DA00A083AA81BB810E944205FF2312F00E94D9
:1004EA00E60406C0AA81BB81EFEFFFEFED93FC9310
:1004FA001981088125960895BA93AA9326970E948E
:10050A004F0510E0AC85BD85E0E0F0E0ED93FC938B
:10051A00EA89FB893196EA8BFB8B3197E4912E2F7E
:10052A00E03009F415C1E12FE03039F4253211F435
:10053A0011E002C00E94F1040AC1E130A9F4253297
:10054A0019F40E94F10402C112E040E000E02D32E9
:10055A0011F401E0FCC02B3211F44BE2F8C0203256
:10056A0011F440E2F4C002C0E23039F450E013E082
:10057A00203311F40068EBC003C0E33009F0E7C090
:10058A00203310F02A3308F007C0AAE05A9F502DF2
:10059A00E22FE0535E0FDBC0E22FE33649F40E94FC
:1005AA00F804E889F989A481AA930E94FE04CEC0BE
:1005BA00E33741F40E94F8040E9404050E949C0457
:1005CA001E2F0AC0E03761F40E94F8040E94040555
:1005DA000E94A8041E2F086002600F7730E034C022
:1005EA00E43611F0E93611F4046002C0E53731F45B
:1005FA00E4E5F0E0EE83FF8315E00CC0E83511F482
:10060A00086003C0E83709F0A1C0EEE5F0E0EE8328
:10061A00FF8314E002FF14C00E94F8040E940E0532
:10062A00AB85AA233AF4EA85FB850E943905EA8755
:10063A00FB874DE2403011F01F5F01C00B7F04C001
:10064A000E94F8040E940E0500FD11C0151778F4E7
:10065A0007FF08C002FF04C00B7F242F115001C0FE
:10066A0020E301C020E20E94F1045150EFCF312F64
:10067A0001FF17C03030A1F003FF06C0EE81FF81F1
:10068A002591EE83FF8305C0AE81BF812D91AE8394
:10069A00BF830E94F104503009F051503150EACF23
:1006AA004BC020E3EE81FF810E944605E887F98767
:1006BA00EE81FF813296EE83FF83E885F985AA856C
:1006CA00BB85AE17BF0750F02F5FA885B985EA85AD
:1006DA00FB85EA1BFB0BEA87FB87EFCF2A3328F05F
:1006EA0003FF02C0295F01C0295D04FD1AC021333E
:1006FA0020F4A885B985119709F409C0531710F099
:10070A0000FF01C013C020E207FF0BC020E3006115
:10071A0002FF07C00B7F4A930E94FE04503009F083
:10072A0051500E94F104503009F051503150A885BF
:10073A00B985129708F0B5CF00FF08C0503031F0E4
:10074A005150E0E2EA930E94FE04F8CF10E0E0CEB6
:10075A00AC85BD850E9442050E945605649608959F
:10076A00FF92F82E26970E9451050E94160530978F
:10077A0019F4EFEFFFEF23C0DE0116960E9435054C
:10078A008D010E941605EE83FF83E0E0E887E98782
:10079A00DE011A960E9435050E944205FA93EA93F1
:1007AA001A930A93E7E4F2E0FA93EA93DE011A96BF
:1007BA00A3DE9F01AE81BF81E0E0EC93F9010E94C4
:1007CA0058052A96FF900895AA93EBB3EF70AE2FBF
:1007DA00E881E07FEA2BEBBB8DE08A95F1F7DA9AA4
:1007EA008DE08A95F1F7DA988DE08A95F1F789C05C
:1007FA00AA93A881E9DFE881E295E883A881E4DF8A
:10080A0085E88A95F1F77DC0AA93E881F0E0EB5676
:10081A00FE4FE081A981AE0FEBDFE981E0939901F8
:10082A00E881E0939A0122960895A2E00E941D05AC
:10083A00ACE0DEDFA1E00E941D05E0E0E0939A0152
:10084A00E09399010895AA93A881AA3031F0E09122
:10085A009B01A0919901AE1760F0E0E0EA93A091A4
:10086A009A01AF5FA0939A01CFDFA881AA3009F459
:10087A0048C0E0919901EF5FE0939901D89AA88165
:10088A00B7DFD8983EC0BA93AA931A93A981BA81BE
:10089A00ED91A983BA831E2FE03019F0A12FD3DF7F
:1008AA00F5CF188123960895AA93EAB3E06FEABBBD
:1008BA00D29AD09AD19ADA98D898D998E881E093BE
:1008CA009B01E058E0939701E881E054E093980196
:1008DA00A4E1B0E00E942B050E9423050E94230593
:1008EA000E942305A0E270DF88EC90E00197F1F7FF
:1008FA00A8E27EDFA4E07CDFA5E87ADFA6E078DF65
:10090A0094DF21960895AA93E1E0F991F03310F06B
:10091A00FA3308F0EE270895AA93E1E0F991F0324C
:10092A0029F0F93010F0FE3008F0EE270895BA9356
:10093A00AA93A991B991EE27FF276D91662311F029
:10094A003196FBCF0895BA93AA93AA27BB27E991B8
:10095A00F9910590002011F01196FBCFFD01089541
:10096A00EA93A0E00C940904EA93A1E00C94090428
:10097A000E9448040E949500E0937201A6EEB0E03E
:10098A000C942B05F40131964F01EEE4E0937201C9
:10099A000895FA93EA93E6E7F0E0FA93EA93089562
:1009AA000E943D050E944A0584E00E94B5032896EC
:1009BA000895AEE6B1E0ED91FD913196FE93EE9386
:1009CA000895ED91FD913196FE93EE9308950E945C
:1009DA003D050E944A0508952A93AD85BE85EF8597
:1009EA00F88909950895E889F9893497E88BF98B8C
:1009FA000895AD85BE85EF85F88909950895A8897A
:100A0A00B98914960E944205EE83FF83AE81BF81A5
:100A1A000895A889B98914960E944205EA87FB8736
:100A2A000895DE011C960E9435050E94420508952C
:100A3A000E94FD03A3E0B0E00C942B05A0E30E9402
:100A4A00E90388EC90E00197F1F70895109639F0E0
:100A5A0080ED97E00197F1F7A8951197C9F70895E6
:100A6A000024AF0DB01D0895F195E195F040089569
:100A7A006F2F660F660B762F0895ED91FC911197F3
:100A8A0008950590F491E02D08957A936A93FA9364
:100A9A00EA9308955A934A933A932A931A930A9394
:100AAA0008955D814C813B812A81198108810895CD
:00000001FF
