:0A0000000C9447000C9400000C94CF
:10000A0000000C9400000C9400000C9400000C9466
:10001A0000000C9400000C9400000C9400000C9456
:10002A0000000C9400000C9400000C9400000C9446
:10003A0000000C9400000C9400000C9400000C9436
:10004A0000000C9400000C94000001030206040C4A
:10005A000809543D25332E306600430080C02D4EDA
:10006A00414E000001002D4E414E00494E4600000F
:10007A0008006001540002006801660001006C017A
:10008A006E000000F894EE27ECBBF1E0FBBFEBBF7B
:10009A00E5BF8DE0A2E0BB27ED938A95E9F780E002
:1000AA0094E0A0E6ED930197E9F7EAE7F0E085919D
:1000BA009591009761F0A591B59105901590BF01B2
:1000CA00F00105900D920197E1F7FB01F0CFEFE502
:1000DA00EDBFE4E0EEBFC0E6D1E00C948200AA9343
:1000EA00E881E7B98BE18A95F1F7369A349BFECF1E
:1000FA00349AE4B1F5B10C94A701619700E010E0DD
:10010A00E0E0EBB9E8E1EAB9E6E8E0BDE0E0E0BD4D
:10011A00E3E3E9B9EFEFE4BBE0E0E5BBEABBEBBB45
:10012A00EFEFE1BBE0E0E2BBE7B9E2E8E6B9E0E025
:10013A00E0BFA0E1D0D08FD0A0E0D1DF8F010E9434
:10014A009E06DF01CB01ECEBF4E763E070E40E946A
:10015A00FB08ED87FE876F87788BFE013896FA9346
:10016A00EA93ECE5F0E0FA93EA93E989FA896B8974
:10017A007C890E94E40984E00E940C052896E0E04C
:10018A00EA93A1E05BD0DE01189688D0E0E3EC8721
:10019A00DE0118960E94A901FE01FA93EA93A4E0EF
:1001AA00B0E00E94B701E7E0EA93A1E047D0A4E6F5
:1001BA00B0E07FD0A4EFB1E00E94AD077A926A92D4
:1001CA00DE0112960E944005E0E3EC8744245524A0
:1001DA00E7E0F0E0E415F5056CF0A0E6B1E0A40D67
:1001EA00B51DEC91E5BBD3010E94AD07F201319632
:1001FA002F01EECFA1CFFFCFAA93E8B3EF70AE2FB6
:10020A00E881E07FEA2BE8BB8DE08A95F1F7C29A94
:10021A008DE08A95F1F7C2988DE08A95F1F70C94F2
:10022A00A701AA93A881E8DFE881E295E883A8817B
:10023A00E3DF85E88A95F1F70C94A701AA93E88190
:10024A00F0E0E859FE4FE081A981AE0FEADF99801C
:10025A00888022960895A2E00E94A306ACE0E1DF1E
:10026A00A1E00E94A306E0E08E2E9E2E0895AA9396
:10027A00A881AA3011F09B1450F0E0E0EA9383942D
:10028A00A82DDCDFA881AA3011F40C94A70193945D
:10029A00C09AA881C6DFC0980C94A701BA93AA9302
:1002AA001A930E94A90619F0A12FE1DFFACF0C9444
:1002BA00B401BA93AA931A93E981FA813196E98330
:1002CA00FA833197E4911E2FE03019F0A12FCFDF86
:1002DA00F3CF0C94B401AA93E7B3E06FE7BBBA9AE1
:1002EA00B89AB99AC298C098C198B880E881E0587B
:1002FA00E0936A01E881E054E0936B01A4E1B0E085
:10030A000E94AD070E94B1060E94B1060E94B10682
:10031A00A0E272DF88EC90E00197F1F7A8E281DFB2
:10032A00A4E07FDFA5E87DDFA6E07BDF94DF0C9405
:10033A00A7015F9BFECFECB10895AA935D9BFECF08
:10034A00E881ECB921960895BA93AA931A930E9468
:10035A00A90619F0A12FF1DFFACFAAE0EEDF188182
:10036A0023960895BA93AA930E94FF090E811F81CA
:10037A0028853985002E012AD9F0DBDF5E2F583017
:10038A0051F4AE81BF810A171B0720F42150304077
:10039A000F5F1F4FF2CF5A3059F03F932F932F5FC1
:1003AA003F4FE52FAF91BF91EC9301501040E2CF40
:1003BA00D901E0E0EC93E885F9850E94060A2A96BD
:1003CA000895BA93AA931A930A93AA81BB811296A3
:1003DA000E94CB09309729F1AA81BB8114960E9409
:1003EA00CB098F01309761F00230E0E01E0780F000
:1003FA00F80131978F01AA81BB811496ED93FC9382
:10040A00AA81BB8112960E94B9063197AC81A0835A
:10041A00AA81BB810E94CB09FF2312F00E94B90670
:10042A0006C0AA81BB81EFEFFFEFED93FC93198120
:10043A000881259608950E94BF06E0E8EA83EFE363
:10044A00EB830E94010AEE85FF85EF3FAFEFFA07C3
:10045A0049F4E885F985FA93EA93A8E6B0E00E94A0
:10046A003006B7C0EF3FAFE7FA0749F4E885F985E8
:10047A00FA93EA93A9E6B0E00E943006AAC0AB85D7
:10048A00A73010F0E6E0EB871B85E12F1150E03032
:10049A0019F00E94C606F9CFEC85FD856E857F8529
:1004AA000E94FB0921F430E00E94C6062DC03B855C
:1004BA000E94D50609F008F40BC00E94C6060E94E5
:1004CA00D50628F00E94E0060E94E506F8CF0DC086
:1004DA000E94D50640F40E94E0060E94F1060E949E
:1004EA00F8063150F5CF0E94C606EC85FD856E856B
:1004FA007F850E94FD060E94F8060E94D50620F01C
:10050A000E94E0060E94E50610E0EB85E117A8F1DB
:10051A00AC81BD818E819F810E9404070E94FD06E5
:10052A00DF01CB010E948706EC83FD836E837F8304
:10053A000E94E0060E94FB080E94EA070E2F0E9412
:10054A000B070E941207FF27662777270E942308B6
:10055A00AC81BD818E819F810E94AD080E94E00618
:10056A000E9417070E94F806E12F1F5FE03069F624
:10057A000E940B07EEE2EC93C8CF0E941C0731974A
:10058A00AA85A08330302CF43195A885B985EDE28F
:10059A0003C0A885B985EBE2EC930E941C070E9470
:1005AA001C073197BF01A32FEAE00E948509E05D8D
:1005BA00DB01EC930E941C073197BF01A32FEAE0ED
:1005CA000E94AF09E05DDB01EC93A885B985E0E004
:1005DA00EC930E94080A60960895BA93AA93EF973B
:1005EA0061970E94FF0910E0FE01E85AFF4F01904F
:1005FA00F081E02DE887F987FE01EA5AFF4F019062
:10060A00F081E02DEE83FF83AE81BF81E0E0F0E070
:10061A00ED93FC93DE01A45ABF4F0E94B9063197AD
:10062A00E4912E2FE03009F4E9C1E12FE03039F4EA
:10063A00253211F411E002C00E942207DEC1E13026
:10064A00C1F4253219F40E942207D6C112E0E0E073
:10065A00ED8B00E02D3211F401E0CFC12B3219F4F9
:10066A00EBE2ED8BCAC1203219F4E0E2ED8BC5C191
:10067A0002C0E23039F450E013E0203311F400688C
:10068A00BCC102C0E33091F4203310F02A3308F0E1
:10069A0007C0AAE05A9F502DE22FE0535E0FADC16A
:1006AA0040E02E3211F414E0A8C10FC0E43099F4EE
:1006BA00203310F02A3308F008C00062AAE04A9FEB
:1006CA00402DE22FE0534E0F98C12C3619F40260E8
:1006DA0015E093C103C0E53009F08FC1E22FE3367C
:1006EA0059F40E9429070E9430070E942907A48111
:1006FA00AA930E94370780C1E53411F0E53609F460
:10070A0003C0E63609F048C0FE017696EE87FF87F9
:10071A000E943D070E94CF090E9444070E94490790
:10072A00AD85AA2332F0AD89AB3259F0A03281F0FF
:10073A0017C00E944B070E94B7070E944407EDE2C8
:10074A00ED8B07FF05C0ED89EA930E94370708C0C1
:10075A00EE85FF853196EE87FF873197AD89A083B5
:10076A0005FF46E0263651F40E944B070E94E40931
:10077A004A93AB89BC890E946E0509C00E944B0747
:10078A000E94E4094A932A93AC89BD8954DEFE018A
:10079A0076960E9450071EC0E33739F40E94490733
:1007AA000E9458070E9450070EC0E037C1F40E9409
:1007BA0049070E945807EE87FF87AE85BF850E94CA
:1007CA0049061E2F08600F77403011F0411708F0D4
:1007DA0001C0142F40E0E0E0EC8B30E06DC0E4365D
:1007EA0011F0E93611F4046002C0E537A1F4EAE039
:1007FA00EC8B01FF08C0E0E0FAEC6AE97BE30E94B7
:10080A005D071AE022C0E0E1F7E260E070E00E94D2
:10081A005D0715E01AC0E83511F4086003C0E8372F
:10082A0009F0EAC0E0E1EC8B01FF08C0E0E0F0E08B
:10083A0060E070E10E945D0718E007C0E0E0F0E1C7
:10084A0060E070E00E945D0714E0403011F00F771D
:10085A0001C041E001FF08C00E9449070E943D070C
:10086A0014960E94CF090FC002FF07C00E944907D1
:10087A000E9458070E94720906C00E9449070E94F6
:10088A00580766277727EA87FB876C877D8702FFE9
:10089A0012C0AD85AA2342F40E944B070E94640944
:1008AA000E944407EDE2ED8BED89E03019F01F5FFD
:1008BA004F5F01C00B7F342F00FD14C0151710F4D1
:1008CA00351708F00FC007FF08C002FF04C00B7FEE
:1008DA002D89115001C020E301C020E20E942207A5
:1008EA005150ECCF141790F4006102FF06C00E9429
:1008FA00620709F0515011504150E0E3EA930E9417
:10090A003707503009F051504150ECCF312FEC8964
:10091A00E030B9F43030A1F003FF06C0EE85FF8560
:10092A002591EE87FF8705C0AE85BF852D91AE87DD
:10093A00BF870E942207503009F051503150EACF48
:10094A0051C00E9474070E948A092E2F2A3030F063
:10095A0003FF02C0295C01C0295A01C0205D04FDC1
:10096A0021C0213360F4A889B9898A899B89A13079
:10097A00E0E0BE07E0E08E07E0E09E0709F40BC066
:10098A00431740F4531710F000FF01C010C020E2D3
:10099A0007FF08C020E3006102FF04C00E9462074B
:1009AA0009F051500E942207503009F0515031503D
:1009BA000E9474070E94BB090E944407EC89A88917
:1009CA00B9898A899B89FF27662777270E948A091E
:1009DA000E945D07E889F9896A897B890E94FB0977
:1009EA0009F0AFCF00FF08C0503031F05150E0E2BB
:1009FA00EA930E943707F8CF10E00CCEAE81BF8190
:100A0A000E94CB090E94060AEF966F960895FF92FC
:100A1A00F82E26970E94010A0E947D07309719F442
:100A2A00EFEFFFEF23C0DE0116960E9460098D01E9
:100A3A000E947D07EE83FF83E0E0E887E987DE0115
:100A4A001A960E9460090E94CB09FA93EA931A93B4
:100A5A000A93E6EEF1E0FA93EA93DE011A96BDDD17
:100A6A009F01AE81BF81E0E0EC93F9010E94080A80
:100A7A002A96FF900895BA93AA93A991B991E991F8
:100A8A00F99130962AF4E095F09531966DE26D93DE
:100A9A00E89480E197E20DD088EE93E00AD084E6EC
:100AAA00992707D08AE005D06E2F10D066276C935D
:100ABA0008956627E817F90720F06395E81BF90BF4
:100ACA00C9F7662311F416F008956894605D6D9372
:100ADA0008950E94BF06E0E0EA83EFE3EB831A93EE
:100AEA000A93EB85FC85EF3FAFEFFA0739F40E94D2
:100AFA008407A0E7B0E00E943006A9C0EF3FAFE745
:100B0A00FA0739F40E948407A1E7B0E00E94300690
:100B1A009EC0AC85AA2362F4E985FA856B857C853B
:100B2A000E94B7070E9489070E948E07EDE2EC93A4
:100B3A00A885A73010F0E6E0E8871885E12F115064
:100B4A00E03039F00E9495070E9404070E949A0734
:100B5A00F5CF0E949F070E945D080E94890710E056
:100B6A00E0E0F0E060E87FE30E949A070E949F07B6
:100B7A000E94400988F00E9495070E94F1060E948F
:100B8A009A071F5F173238F00E948407A5E7B0E082
:100B9A000E9430065CC0EACF103029F40E948E070A
:100BAA00E0E3EC9329C0E12F1150E03029F10E94D3
:100BBA0095070E9404070E94FD06DF01CB010E94EF
:100BCA0087060E949A070E949F070E94FB080E94BC
:100BDA00EA070E2F0E948E070E941207F0E00E9479
:100BEA0095070E949E060E94AD080E94A8070E94CF
:100BFA0017070E948907D7CFE885E03021F10E94C4
:100C0A008E07EEE2EC93E885E150E887EF5FD9F0D2
:100C1A000E94A8070E94F1060E948907E985FA85C1
:100C2A006B857C850E94EA070E2F0E948E070E9420
:100C3A001207F0E00E94A8070E949E060E9417076A
:100C4A000E948907E0CFAE81BF81E0E0EC93198171
:100C5A0008812D960895BA93AA93E991F991A991D9
:100C6A00B991CD0105900D920020E1F7FC0108959C
:100C7A00BA93AA93A991B991EE27FF276D9166239A
:100C8A0011F03196FBCF0895BA93AA93AA27BB27EE
:100C9A00E991F9910590002011F01196FBCFFD0121
:100CAA0008950E94E9097B816A81F981E88177FBCD
:100CBA00770F67FD7160972F9E5781F078F0983112
:100CCA0090F4AA27BB27882708948795B795A795F4
:100CDA009A95D1F7EA23FB23682305C0E89477277E
:100CEA00EE27FF2766276F77769508F4606877F90D
:100CFA00A991B99189919991EA17FB076807790730
:100D0A0097FB08950E94E9090E94DA090E94560693
:100D1A000E94DF0919F40E94D50909C0E6F70E946A
:100D2A00D509A0E0B0E080E89FE30E945608249627
:100D3A0008950E9472090E94230808950E941601CC
:100D4A00A3E0B0E00C94AD07A981BA81ED91A98323
:100D5A00BA831E2FE0300895A0E30E94010188ECB7
:100D6A0090E00197F1F70895ED91FD913196FE9388
:100D7A00EE930895BA93AA932497E0E0E883E9836F
:100D8A000895AC81BD818E819F81E0E0F0E060E250
:100D9A0071E40E94AD08EC83FD836E837F8308951E
:100DAA00EC81FD816E817F81AC85BD858E859F85B5
:100DBA000E9440090895AC85BD858E859F8508955A
:100DCA00EDECFCEC6CEC7DE30E94AD08EC87FD8752
:100DDA006E877F873F5F0895E0E0F0E060E271E4AC
:100DEA000E94AD080895EC87FD876E877F87089576
:100DFA00A0E0B0E080E09FE30E945D080895EDEC7A
:100E0A00FCEC6CEC7DE30E94AD080895A885B985D9
:100E1A001196A887B98711970895E02FE05DEC93A2
:100E2A00E02F08950E94EE090E9456080895E88569
:100E3A00F9853196E887F98708952A93AF81B885AD
:100E4A00E985FA8509950895FE01E65AFF4F019052
:100E5A00F081E02D08953497DE01A65ABF4FED9335
:100E6A00FC930895AF81B885E985FA8509950895B7
:100E7A00DE01A65ABF4F0D90BC91A02D0895EA87B6
:100E8A00FB876C877D870895DFDFE5CFEA85FB85E1
:100E9A006C857D850895EE87FF87AE85BF850E94A4
:100EAA003D061E2F0895E4DF14960E94CB0908958B
:100EBA00E88BF98B6A8B7B8B08950B7FED89EA931C
:100ECA00DE01A95ABF4F0D90BC91A02DFE01E75A31
:100EDA00FF4F0190F081E02D099550300895E8897F
:100EEA00F9896A897B89AA85BB858C859D85089540
:100EFA00DE011C960E9460090E94CB090895EE81CA
:100F0A00FF81FA93EA930895E987FA876B877C87CA
:100F1A000895AE81BF811196AE83BF83119708955C
:100F2A00AA81BB818C819D810895EA83FB836C83AE
:100F3A007D830895EA81FB816C817D81A985BA85CB
:100F4A008B859C850895A985BA858B859C8508958E
:100F5A00109639F080ED97E00197F1F7A89511976F
:100F6A00C9F7089530976040704009F070580895A5
:100F7A00552342F4503811F4E0FF04C03196691F3A
:100F8A00791F6BF050E8572711F45F93CFC05F3F8A
:100F9A0031F0660F000C57956795752F08955F938A
:100FAA0000200AF0CFC0C8C050E8192E1522880FB9
:100FBA00991F9527550F879550E8072E0522660F2A
:100FCA00771F7527550F67950895689401C0E894AF
:100FDA005F93F2DF703818F07F3F08F4A7C056E13C
:100FEA00571BAAF4519558300EF4593030F0EFEFF0
:100FFA00FFEF6FEF7FE777F91AC077275523B9F02C
:10100A00EE0FFF1F661F771F5A95D1F710C077277B
:10101A00583028F0EF2FF62F672F5850F9CF552365
:10102A0031F076956795F795E7955A95D1F70020AF
:10103A000AF445D15F910895689401C0E894309705
:10104A0060407040B1F0002426F0772312F4009437
:10105A0036D1172E7EE1112032F07A95EE0FFF1F5E
:10106A00661F111CF9CFEF2FF62F612D5F938ADFD0
:10107A005F9108954F93AF01FD01DA01AB01BC0105
:10108A00CA01402D012C142E4F910895EA0FFB1F1F
:10109A00681F0895E095F0956095EF5FFF4F6F4FD9
:1010AA0008955F9381DF903871F150E8152604C0E6
:1010BA005F937ADF903839F1703821F1572F591B35
:1010CA002BF112F4D7DFFACF583118F0AA27BB2731
:1010DA008827583028F0AB2FB82F88275850F9CFD7
:1010EA00552329F08695B795A7955A95D9F7502D86
:1010FA00512572F0CBDF38F46795F795E79573952C
:10110A0013F420C0B7DF3EDF5F910895D8F7FBCF15
:10111A00EA1BFB0B680B51F010F40094BBDF66234B
:10112A0092F3EE0FFF1F661F7A95CBF7EE27FF2784
:10113A00662777275F910895EFEFFFEF6FE77FEF5D
:10114A005F910895EFEFFFEF6FE77FE75F910895F3
:10115A005F932ADF703851F3903841F301240894E1
:10116A00791F23F41CF300203AF3ECCF0F921F935C
:10117A002F933F934F93112722279927689FA00106
:10118A008F9F302D410D591F6B9F300D411D591FE7
:10119A008E9F27D0BF9F25D06A9F23D0BE9F1DD088
:1011AA00AF9F1BD0AE9F110D291F391F491F591F11
:1011BA00E32FF42F652F522F4F913F912F911F91BB
:1011CA000F9066232AF0550FEE1FFF1F661F02C0FD
:1011DA0073954BF2CDDE5F910895100D211D391FD5
:1011EA0002C0200D311D491F591F08955F93DCDE8F
:1011FA00703821F411200AF49FCFA4CF903809F453
:10120A0095CF01240894970B1BF4D4F30020F3CF55
:10121A00792F1F932F933F934F931124112722273E
:10122A0033274427552790E2AE17BF0786074107A1
:10123A0030F0AE1BBF0B860B410B089401C088949B
:10124A00551F221F331F111CAA1FBB1F881F441FB3
:10125A009A9551F7F901612D4F913F912F911F9165
:10126A00662332F0550FEE1FFF1F661F7A9543F271
:10127A007FDE5F91089599239AF0772342F09717BA
:10128A0048F029F4AE17BF07860720F031F098948A
:10129A0088940895989408940895189488940895C1
:1012AA007723C2F7971798F3A9F7EA17FB07680796
:1012BA0088F399F3ECCF0024AF0DB01D0895F09593
:1012CA0060957095E195FF4F6F4F7F4F0895FE2F00
:1012DA00FF0FFF0B6F2F7F2F08956F2F660F660B7F
:1012EA00762F0895002498E0AA0F001C0E1A10F415
:1012FA000E0E01C0A1609A95B9F7EA2FA02D0895A4
:10130A0039D0F0DF0EF4E19508953F934F935F9340
:10131A00002411244427552730E2AA0FBB1F881F37
:10132A00991F001C111C441F551F0E1A1F0A460B39
:10133A00570B28F40E0E1F1E461F571F01C0A1602F
:10134A003A9559F7FD01BC01D001CA015F914F914D
:10135A003F910895E894A7FF02C0A1956894E7FD1C
:10136A00E195C0DFEA2F0EF4E1950895CEDFFD0185
:10137A00BC010895E894E7FF02C0E1956894A7FFCD
:10138A0004C0A19500F8039400FA0895ED91FC9128
:10139A0011970895ED91FD916D917C9113970895A0
:1013AA00E881F9816A817B810895A881B9818A815E
:1013BA009B810895E883F9836A837B8308957A93EE
:1013CA006A93FA93EA9308959A938A93BA93AA939B
:1013DA000895182E862F612D192E972F712D1B2EE9
:1013EA00BF2FF12D1A2EAE2FE12D089530976040B0
:1013FA00704008955A934A933A932A931A930A93F8
:10140A0008955D814C813B812A8119810881089563
:00000001FF
